{
  "transactions": [
    {
      "hash": "0xcb2c170c8c9640366d3aeeef5ac5af899e1fde28e3b8d9d81449372419a96e70",
      "transactionType": "CALL",
      "contractName": "LinkToken",
      "contractAddress": "0x779877A7B0D9E8603169DdbD7836e478b4624789",
      "function": "transferAndCall(address,uint256,bytes):(bool)",
      "arguments": [
        "0x8103B0A8A00be2DDC778e6e7eaa21791Cd364625",
        "3000000000000000000",
        "0x0000000000000000000000000000000000000000000000000000000000001390"
      ],
      "transaction": {
        "type": "0x02",
        "from": "0xa0a9739674f288d406693648777b5b275a77f556",
        "to": "0x779877a7b0d9e8603169ddbd7836e478b4624789",
        "gas": "0x13fbe",
        "value": "0x0",
        "data": "0x4000aea00000000000000000000000008103b0a8a00be2ddc778e6e7eaa21791cd36462500000000000000000000000000000000000000000000000029a2241af62c0000000000000000000000000000000000000000000000000000000000000000006000000000000000000000000000000000000000000000000000000000000000200000000000000000000000000000000000000000000000000000000000001390",
        "nonce": "0x10",
        "accessList": []
      },
      "additionalContracts": [],
      "isFixedGasLimit": false
    }
  ],
  "receipts": [
    {
      "transactionHash": "0xcb2c170c8c9640366d3aeeef5ac5af899e1fde28e3b8d9d81449372419a96e70",
      "transactionIndex": "0x0",
      "blockHash": "0x55001360b4d632368ca7273a830afe2cf9eb0bc41d15b27a500404672c861267",
      "blockNumber": "0x4260dc",
      "from": "0xa0A9739674f288d406693648777b5b275A77f556",
      "to": "0x779877A7B0D9E8603169DdbD7836e478b4624789",
      "cumulativeGasUsed": "0xe77e",
      "gasUsed": "0xe77e",
      "contractAddress": null,
      "logs": [
        {
          "address": "0x779877A7B0D9E8603169DdbD7836e478b4624789",
          "topics": [
            "0xddf252ad1be2c89b69c2b068fc378daa952ba7f163c4a11628f55a4df523b3ef",
            "0x000000000000000000000000a0a9739674f288d406693648777b5b275a77f556",
            "0x0000000000000000000000008103b0a8a00be2ddc778e6e7eaa21791cd364625"
          ],
          "data": "0x00000000000000000000000000000000000000000000000029a2241af62c0000",
          "blockHash": "0x55001360b4d632368ca7273a830afe2cf9eb0bc41d15b27a500404672c861267",
          "blockNumber": "0x4260dc",
          "transactionHash": "0xcb2c170c8c9640366d3aeeef5ac5af899e1fde28e3b8d9d81449372419a96e70",
          "transactionIndex": "0x0",
          "logIndex": "0x0",
          "removed": false
        },
        {
          "address": "0x779877A7B0D9E8603169DdbD7836e478b4624789",
          "topics": [
            "0xe19260aff97b920c7df27010903aeb9c8d2be5d310a2c67824cf3f15396e4c16",
            "0x000000000000000000000000a0a9739674f288d406693648777b5b275a77f556",
            "0x0000000000000000000000008103b0a8a00be2ddc778e6e7eaa21791cd364625"
          ],
          "data": "0x00000000000000000000000000000000000000000000000029a2241af62c0000000000000000000000000000000000000000000000000000000000000000004000000000000000000000000000000000000000000000000000000000000000200000000000000000000000000000000000000000000000000000000000001390",
          "blockHash": "0x55001360b4d632368ca7273a830afe2cf9eb0bc41d15b27a500404672c861267",
          "blockNumber": "0x4260dc",
          "transactionHash": "0xcb2c170c8c9640366d3aeeef5ac5af899e1fde28e3b8d9d81449372419a96e70",
          "transactionIndex": "0x0",
          "logIndex": "0x1",
          "removed": false
        },
        {
          "address": "0x8103B0A8A00be2DDC778e6e7eaa21791Cd364625",
          "topics": [
            "0xd39ec07f4e209f627a4c427971473820dc129761ba28de8906bd56f57101d4f8",
            "0x0000000000000000000000000000000000000000000000000000000000001390"
          ],
          "data": "0x0000000000000000000000000000000000000000000000008ac7230489e80000000000000000000000000000000000000000000000000000b469471f80140000",
          "blockHash": "0x55001360b4d632368ca7273a830afe2cf9eb0bc41d15b27a500404672c861267",
          "blockNumber": "0x4260dc",
          "transactionHash": "0xcb2c170c8c9640366d3aeeef5ac5af899e1fde28e3b8d9d81449372419a96e70",
          "transactionIndex": "0x0",
          "logIndex": "0x2",
          "removed": false
        }
      ],
      "status": "0x1",
      "logsBloom": "0x0000001400000000000000000000000080000000000000020000000002000000000000000000800000000000000000000000000000000000000000000000000000000000040000000000000800000000000010000000000000002000000000000000000000000000000000000000000000000000400000000000001000000000000000000c000020000000000000800010000020000000000000400000000000000000000000008000000000000080000000000000000000000400000000000000000002000000000000000000000000000000000000000100000000000000000000000000000000000000000000000000000000000000000000000000000000",
      "type": "0x2",
      "effectiveGasPrice": "0xb2d05e11"
    }
  ],
  "libraries": [],
  "pending": [],
  "returns": {},
  "timestamp": 1695507606,
  "chain": 11155111,
  "multi": false,
  "commit": "c01e3f6"
}